:020000040800F2
:10000000C8060020450100089B1C00088117000855
:10001000991C0008FD010008D5210008000000001F
:10002000000000000000000000000000BF1C0008ED
:100030003D02000800000000BD1C0008C11C0008B3
:100040005F0100085F0100085F0100085F01000810
:100050005F0100085F0100085F0100085F01000800
:100060005F0100085F0100085F010008010200084D
:100070000D020008190200085F0100085F01000876
:1000800025020008310200085F0100085F01000836
:100090005F0100085F0100085F0100085F010008C0
:1000A0005F0100085F0100085F0100085F010008B0
:1000B0005F0100085F0100085F0100085F010008A0
:1000C0005F0100085F0100085F0100085F01000890
:1000D0005F0100085F0100085F0100085F01000880
:1000E0005F0100085F0100085F0100085F01000870
:1000F0005F0100085F0100085F0100085F01000860
:100100005F0100085F0100085F0100085F0100084F
:100110005F0100085F0100085F0100085F0100083F
:100120005F0100085F0100085F0100085F0100082F
:10013000DFF80CD000F02AF800480047F52100084D
:10014000C80600200648804706480047FEE7FEE74D
:10015000FEE7FEE7FEE7FEE7FEE7FEE7FEE7FEE777
:10016000251D000831010008D2B201E000F8012B82
:10017000491EFBD270470022F6E710B513460A4627
:1001800004461946FFF7F0FF204610BD064C074D08
:1001900006E0E06840F0010394E807009847103457
:1001A000AC42F6D3FFF7C8FF3822000858220008F7
:1001B00070B5044600688168C943C9071CD18168CD
:1001C00021F00101816000F01BFC05460FE000BF3B
:1001D00000F016FC401B022809D9A06A40F010006C
:1001E000A062E06A40F00100E062012070BD20687A
:1001F0008068C043C007EBD0002070BDFEE7000060
:10020000014800F0A1B9000070000020014800F092
:100210009BB9000080020020014800F095B9000061
:100220003C020020014800F08FB90000F8010020D6
:10023000014800F089B90000B40100207047704700
:10024000F8B50024009490F824202546012A12D005
:10025000012280F824204A681F23072A0DD206684D
:10026000776B521E02EB820293409F430B689340D0
:100270001F43776319E00220F8BD06680D2A0AD2F1
:10028000376BD21F02EB820293409F430B6893406F
:100290001F43376309E0F76A0D3A02EB820293408D
:1002A0009F430B6893401F43F7620A680723066861
:1002B0000A2A0AD3F7680A3A02EB420293409F43A4
:1002C0008B6893401F43F76008E0376902EB4202F6
:1002D00093409F438B6893401F4337610A68102AFD
:1002E00001D0112A20D1124B02689A4217D193688B
:1002F0001B0219D4936843F4000393600968102922
:1003000012D10C490C4A0968B1FBF2F101EB8101F1
:10031000490000E0491E00910029FBD104E0816AF8
:1003200041F020018162012480F824502046F8BD6C
:10033000002401400C00002040420F002DE9F04154
:1003400004004FF000057FD0A06A002628B9E662BD
:1003500084F82460204600F081F82046FFF728FF4B
:10036000A16AC90600D420B1A06A40F01000A062C2
:100370006AE0A16A21F4885141F00201A162334987
:1003800023688B42E16904D1B1F5402F01D14FF4CC
:100390000021E7684FF4807C41EA470261680A4324
:1003A000A168614508D0012906D00021D4F814E0E5
:1003B000BEF1010F02D00AE06146F7E7C7B1A76AB4
:1003C00047F02007A762E76A47F00107E7625F6826
:1003D00027F469470F435F60236899681C4F3940D1
:1003E00011439960A16861450BD0012909D00CE047
:1003F000DFF860E0A7690EEB47370F4347F4006171
:10040000E5E7218A0D05A5F580152168CB6A23F45F
:1004100070032B43CB62216889680F4B19409142CE
:1004200008D1E662A16A21F0020141F00101A16256
:10043000BDE8F081A06A20F0020040F01000A06248
:10044000E06A40F00100E0620120F1E7003C014079
:10045000FDF7E1FF00E0FFFFFE0E1FFF70B586B065
:1004600000250646009501950295039500682F4BDF
:100470002F4903242F4A98423CD1886940F40070E8
:100480008861886900F400700490886940F0100069
:100490008861886900F010000490886940F00400C9
:1004A00088618869694600F0040004901620CDE94F
:1004B0000004104600F0AAF90120CDE900046946C5
:1004C0001D4800F0A3F91E4C1C48C4E9000580201B
:1004D000C4E90250400020618000C4E905052046BF
:1004E000E56100F055F908B1FFF7A9FE34626662D4
:1004F00006B070BD134B9842FAD1886940F4806011
:100500008861886900F480600490886940F0100078
:1005100088618869694600F0100004902920CDE9BF
:100520000004104600F072F9E2E7000000240140E8
:100530000010024000100140000801400800024085
:1005400070000020002801402DE9F05FC16B0A68AF
:1005500001680B68046C4FF0040808FA04F8844D35
:10056000844E854FDFF814C2DFF81492DFF814A22E
:10057000DFF814B2DFF814E218EA020F65D05FEA80
:10058000437862D50A68920603D40A6822F004020E
:100590000A60DFF8F0814FF48062016808F1140806
:1005A00013011402414524D9A9420DD0B1420FD004
:1005B000B9421AD0614515D0494515D0514501D1F0
:1005C000120312E0594501D104220EE0714501D118
:1005D00040220AE06D4D1435A94206D06B4A2832FC
:1005E000914201D11A4600E022466749091F0A607C
:1005F00029E0A94213D0B14215D0B94220D06145BB
:100600001BD049451BD0514502D14FF4800217E061
:10061000414502D14FF0806212E0594501D10422D8
:100620000EE0714501D140220AE0584D1435A9422F
:1006300006D0564A2832914201D11A4600E022469D
:100640004B4908394A60C16A71E04FF0020808FA64
:1006500004F818EA020F70D05FEA83786DD50A6853
:10066000920606D40A6822F00A020A60012180F884
:100670002110DFF810814FF40072016808F11408AE
:1006800013011402414524D9A9420DD0B1420FD023
:10069000B9421AD0614515D0494515D0514501D10F
:1006A000120312E0594501D102220EE0714501D139
:1006B00020220AE0354D1435A94206D0334A2832AB
:1006C000914201D11A4600E022462F49091F0A60D3
:1006D00029E0A94213D0B14215D0B94220D06145DA
:1006E0001BD049451BD0514502D14FF4001217E0F1
:1006F000414502D14FF0007212E0594501D102226A
:100700000EE0714501D120220AE0204D1435A942A6
:1007100006D01E4A2832914201D11A4600E02246F4
:10072000134908394A60002180F82010816A0029A5
:100730001CD0BDE8F05F0847FFE70825A54015423B
:1007400014D01A0712D50A6822F00E020A6090F837
:100750004020C36B012101FA02F25A60816380F8E4
:100760002110002180F82010016BE0E7BDE8F09F28
:10077000080002401C0002403000024044000240D9
:10078000580002406C000240080402401C04024071
:1007900030B560B11A4B026814219A4209D2194B44
:1007A0001344B3FBF1F18900016417490AE0012009
:1007B00030BD134B5B421344B3FBF1F1890001647C
:1007C0000F490839C163022180F82110136843F6EC
:1007D000F0718B43F0E901142143D0E902452C4329
:1007E0002143046921434469214384692143194316
:1007F000116000214163012242770177084630BD34
:1008000008040240F8FFFDBF000002402DE9F84F48
:10081000DFF8B8A100220AF1040B144601274FF0BB
:100820000F090BF1040E00BF0B6807FA04F52B400B
:10083000AB4274D1DFF898C14E68A6EB0C08664550
:100840002BD00DDC032E34D005DC36B3012E19D0AD
:10085000022E2FD11BE0112E16D0122E2AD119E014
:10086000B8F5881F19D006DCB8F5803F15D0B8F56B
:10087000801F1FD111E0B8F5001F0ED0B8F5041F7E
:1008800018D10AE0CA6815E0CA68121D12E0CA68E9
:1008900008320FE0CA680C320CE08A682AB1012ADB
:1008A0004FF0080203D0456104E0042202E0056134
:1008B00000E00022FF2B01D8064601E000F104060B
:1008C0004FEA840501D9A5F12005D6F800C009FA40
:1008D00005F82CEA080C02FA05F54CEA050CC6F8F6
:1008E00000C04D68ED006AD53A4DAE6946F001068C
:1008F000AE61AD6924F0030605F001050095364DA3
:1009000006EB050CDCF80850A6074FEA167809FA42
:1009100008F6B543314EB04202D100261AE04EE04F
:100920002F4EB04201D1012614E02E4EB04201D12B
:1009300002260FE02C4EB04201D103260AE02B4ED6
:10094000B04201D1042605E0294EB04201D105266E
:1009500000E0062606FA08F62E43CCF808604D683B
:10096000DAF80060ED03554601D51E4300E09E43D2
:100970002E604D68AD0305D5DBF800601E43CBF853
:10098000006004E0DBF800509D43CBF800504D6858
:10099000DEF80060ED02754601D51E4300E09E437F
:1009A0002E604D68AD0205D5084D0C352E681E43EE
:1009B0002E6004E0054E0C3635689D433560641C9E
:1009C000102CFFF431AFBDE8F88F000000040140A7
:1009D000000011100010024000000140000801401A
:1009E000000C0140001001400014014000180140BB
:1009F000001C01400AB1016170470904FBE70000D7
:100A000001488068704700000000002002488168AB
:100A1000027811448160704700000020074810B53B
:100A2000016841F010010160032000F073F800201C
:100A300000F006F800F024F8002010BD002002406D
:100A400070B50D4D04464FF47A712878B1FBF0F083
:100A50000A490968B1FBF0F000F072FB48B9102CAC
:100A600007D200222146501E00F034F800206C60AE
:100A700070BD012070BD0000000000200C000020AF
:100A80000C4808B5816941F001018161816901F07B
:100A900001010091C16941F08051C161C06900F05C
:100AA000805000900448416821F0E06141F00071FD
:100AB000416008BD001002400000014000F01F022C
:100AC000012191404009800000F1E020C0F80011B0
:100AD00070470000F0B40E4B1B680C46C3F30223B2
:100AE000C3F10705042D00D90425191D072901D2DA
:100AF000002300E0DB1E012606FA05F1491E214015
:100B000099409E40761E16403143F0BC01F0C6B8B5
:100B10000CED00E0064900F0070208684FF6FF03FD
:100B2000184040EA0220034A104308607047000062
:100B30000CED00E00000FA052DE9F84305460078C9
:100B4000354CC00754D0E0690026C00008D4E069E5
:100B500040F08050E061E069012600F08050009094
:100B60002E480168C90512D40168804641F480719D
:100B70000160FFF745FF074605E000BFFFF740FFB4
:100B8000C01B642823D8D8F80000C005F6D5206A19
:100B900010F4407021D0A98801F4407181421CD02A
:100BA000206A1F49012220F440700A6000220A6076
:100BB0002062C00711D0FFF723FF074641F28838B3
:100BC00008E000BFFFF71CFFC11B414502D903200D
:100BD000BDE8F883206A8007F4D5206A696820F4AC
:100BE0004070084320621EB1E06920F08050E0614F
:100BF0002878800705D56068A96820F4404008433C
:100C000060602878C00605D56068696920F48000B6
:100C1000084360600020DBE70010024000700040E5
:100C2000400442422DE9F047DFF8548105460E4664
:100C3000D8F8000000F00700B0420CD2D8F800103D
:100C400021F007013143C8F80010D8F8000000F087
:100C50000700B0426FD128684A4C810712D540077F
:100C600003D5606840F4E06060602878000703D531
:100C7000606840F4605060606068A96820F0F0002F
:100C8000084360602878C00744D06868012816D0FF
:100C90002168022816D0890700294CDA616821F002
:100CA000030101436160FFF7ABFE6968074641F24B
:100CB000883001290ED00229814618D026E021680B
:100CC0008903E9E78901E7E7FFF79AFEC11B494578
:100CD00001D918E081466068C0F381000128F3D192
:100CE00018E000BFFFF78CFEC11B49450BD86068B8
:100CF000C0F381000228F5D10CE000BFFFF780FEB1
:100D0000C11B494502D90320BDE8F087606810F097
:100D10000C0FF3D1D8F80010404601F00701B142A2
:100D20000BD9016821F0070131430160006800F030
:100D30000700B04201D00120E6E72878400705D53A
:100D40006068E96820F4E060084360602878000784
:100D500006D56068296920F4605040EAC1006060EF
:100D600000F036F86168084AC1F30311515CC840CD
:100D7000064908600020FFF763FE0020C4E700007A
:100D800000200240001002401E2200080C0000203B
:100D90000448054900684968044AC1F30221515CCE
:100DA000C84070470C000020001002402E220008AE
:100DB0000448054900684968044AC1F3C221515CEE
:100DC000C84070470C000020001002402E2200088E
:100DD00012A185B00FC98DE80F0014A0144A006855
:100DE00004905168134801F00C03042B10D0082B19
:100DF0000ED1C1F38343C9031DF803000AD551681E
:100E000004AAC1F34041515C0A4A5043B0FBF1F0DF
:100E100005B0704708494843FAE70000020304059B
:100E2000060708090A0B0C0D0E0F10100102000036
:100E30000010024000127A0000093D002DE9F84F31
:100E400004460078B94DC00748D06868C0F38100F7
:100E5000012807D06868C0F38100022809D16868BA
:100E6000C00306D52868800338D5606800286FD095
:100E700034E06068B0F5803F0BD010B1B0F5A02F22
:100E800011D0286820F480302860286820F4802061
:100E900002E0286840F480302860606888B1FFF77D
:100EA000AFFD064609E0286840F480202860F0E79E
:100EB000FFF7A6FD801B642875D828688003F7D546
:100EC0000CE0FFF79DFD064605E000BFFFF798FD2B
:100ED000801B6428F0D828688003F7D42078944ECB
:100EE00080074FF001094FF000083BD5686810F00B
:100EF0000C0F07D06868C0F38100022809D1686828
:100F0000C00306D42868800714D5206901281FD1A2
:100F100010E02069B0B1C6F80090FFF771FD0746F8
:100F200005E000BFFFF76CFDC01B0228C4D828688D
:100F30008007F7D52868616920F0F80040EAC10011
:100F400028600FE0C6F80080FFF75AFD074606E06C
:100F5000E9E000BFFFF754FDC01B022823D8286832
:100F60008007F7D4207800072CD57248A169D9B141
:100F7000C0F80090FFF744FD074604E0FFF740FD8E
:100F8000C01B02280FD8686A8007F7D56A484FF45B
:100F9000FA510068B0FBF1F0009000BF0098411ECC
:100FA0000091FAD20EE080E0C0F80080FFF728FD43
:100FB000074604E0FFF724FDC01B022875D8686AC5
:100FC0008007F7D42078400760D5E8690027C00083
:100FD00008D4E86940F08050E861E869012700F032
:100FE0008050009055480168C90513D401688346B4
:100FF00041F480710160FFF703FD824606E000BF07
:10100000FFF7FEFCA0EB0A0064284ED8DBF80000D6
:10101000C005F5D5E06801280AD008B1052813D02D
:10102000286A20F001002862286A20F0040002E00B
:10103000286A40F001002862E06841F2883B98B1DC
:10104000FFF7DEFC82460BE0286A40F004002862CD
:10105000EEE700BFFFF7D4FCA0EB0A0159455AD8D0
:10106000286A8007F6D50CE0FFF7CAFC824605E047
:10107000FFF7C6FCA0EB0A0159454CD8286A800747
:10108000F6D41FB1E86920F08050E861E06988B3C8
:101090006968C1F38101022945D00228C6F8608041
:1010A00004D0FFF7ADFC044638E034E0FFF7A8FCBD
:1010B000074604E0FFF7A4FCC01B02282BD82868D1
:1010C0008001F7D4206AB0F5803F05D16868A16837
:1010D00020F4003008436860D4E9080108436968D7
:1010E00021F4741108436860C6F86090FFF788FC2B
:1010F000044606E015E000BFFFF782FC001B022853
:1011000009D828688001F7D50BE000BFFFF778FC0D
:10111000001B022802D90320BDE8F88F286880014F
:10112000F4D40020F8E70120F6E7000000100240A8
:1011300000004242800442420C0000200070004047
:1011400010B5401EB0F1807F01D3012010BD4FF0DB
:10115000E02460610F21601700F0A0FD0020A06175
:1011600007202061002010BD10B590F83C20012A16
:1011700025D0012280F83C20CA688C6822F4407295
:1011800022434C6822F4806222430C6822F40062FD
:1011900022430C6922F4805222434C6922F400520B
:1011A00022438C6922F48042224322F400410268E7
:1011B00000232143516480F83C30002010BD022000
:1011C00010BD30B590F83C20012A20D0012280F8D3
:1011D0003C20022380F83D3003685C6824F07004F2
:1011E0005C6003685C680D682C435C6003689C6805
:1011F00024F080049C6003689C6849680C439C60F0
:1012000080F83D20002180F83C10084630BD0220C7
:1012100030BD10B5040003D094F83D0010B107E0D4
:10122000012010BD002084F83C00204600F00CF89E
:10123000022084F83D00211D206800F097FD012068
:1012400084F83D00002010BD08B50C4A01680C4828
:10125000914207D1816941F400618161806900F4A4
:10126000006009E0074A914207D1816941F40051C9
:101270008161806900F40050009008BD002C01409D
:10128000001002400034014070B5044690F83C0064
:10129000012817D0012584F83C50022084F83D0035
:1012A0002068826822F0770222F47F428260086818
:1012B000502837D00DDC202859D005DC88B3102801
:1012C00041D151E0022070BD302853D040283AD19E
:1012D0003FE060282ED070280BD0B0F5805F03D09F
:1012E000B0F5005F2FD110E02068816821F0070180
:1012F00015E0CB68D1E90121206800F07DFD21686F
:10130000886840F0770088601DE0CB68D1E9012152
:10131000206800F071FD2068816841F4804181609F
:1013200011E01EE0CA684968206800F077FE50218D
:10133000206806E0CA684968206800F080FE6021E5
:10134000206800F063FD84F83D50002084F83C00E4
:1013500070BDCA684968206800F060FE40212068BE
:10136000EFE700212068ECE710212068E9E7202161
:101370002068E6E730212068E3E7000070B586B01A
:101380000021009101910291039100682E4A2F499A
:1013900002242F4D2F4E904220D1886940F0080042
:1013A0008861886900F008000490886940F00400B2
:1013B00088618869694600F0040004904FF4604039
:1013C000CDE9000428460394FFF720FA4FF4E060CB
:1013D000CDE9000469463046039431E01E4A90424C
:1013E00030D1886940F004008861886900F0040009
:1013F0000490886940F008008861886900F008005E
:101400000490886940F0100088618869694600F09E
:10141000100004908020CDE9000430460394FFF7CB
:10142000F5F90320CDE90004694628460394FFF747
:10143000EDF94FF4E070CDE90004694607480394E4
:10144000FFF7E4F906B070BD002C01400010024027
:10145000000C014000080140003401400010014030
:1014600070B5044690F83C000D4601280DD00126C9
:1014700084F83C60022084F83D0042B1042A18D070
:10148000082A2AD00C2A4DD139E0022070BD2068EC
:1014900000F0C4FC2068816941F008018161206886
:1014A000816921F004018161206881692A69114301
:1014B00011E0206800F0E2FC2068816941F40061DD
:1014C00081612068816921F480618161206881697E
:1014D0002A6941EA0221816124E0206800F004FDCC
:1014E0002068C16941F00801C1612068C16921F02B
:1014F0000401C1612068C1692A69114311E02068B3
:1015000000F026FD2068C16941F40061C1612068D6
:10151000C16921F48061C1612068C1692A6941EA19
:101520000221C16184F83D60002084F83C0070BD58
:1015300010B5040003D094F83D0010B107E001207D
:1015400010BD002084F83C00204600F00CF802207A
:1015500084F83D00211D206800F008FC012084F87B
:101560003D00002010BD704770B5044690F83C0067
:10157000012818D0012584F83C50022084F83D0051
:10158000204600F00DFD2068C16821F04001C160D7
:101590002068C16821F48041C16084F83D5000207A
:1015A00084F83C0070BD022070BD70B5040004D00A
:1015B00094F83900002510B106E0012070BD84F8D0
:1015C0003850204600F022F8242084F839002068A2
:1015D000C16821F40051C160204600F043FD20683D
:1015E000016921F4904101612068416921F02A01DB
:1015F00041612068C16841F40051C160E563202069
:1016000084F8390084F83A00002070BD2DE9F043D9
:1016100085B0002500950195029503950446514F2C
:10162000036851480221032280264FF010084FF032
:101630002009BB4246D1C36943F40033C361C36987
:1016400003F400330493836943F0040383618069E6
:10165000464F00F0040004900420CDE900010392FD
:1016600069463846FFF7D2F80820CDE900056946FB
:1016700038460295FFF7CAF83E4F3D48C7E9025683
:101680003D617D61BD61FD61C7E900083846FFF736
:101690007FF808B1FEF7D3FD27637C62354F3448ED
:1016A00044371438C7E90005C7E902563D61C7E968
:1016B00005593846FD61FFF76BF808B1FEF7BFFD2D
:1016C00067634AE02C4FBB4248D1C36943F480238F
:1016D000C361C36903F480230493836943F008035F
:1016E00083618069039200F0080004903815CDE909
:1016F0000001224F69463846FFF788F8F814CDE913
:101700000005694638460295FFF780F8194F1848DA
:1017100088375038C7E90005C7E902563D61C7E977
:1017200005593846FD61FFF733F808B1FEF787FD2C
:1017300067637C620F4F0E48CC376438C7E90256A6
:101740003D617D61BD61FD61C7E900083846FFF775
:101750001FF808B1FEF773FD27637C6205B0BDE892
:10176000F0830000004400400010024000080140E7
:1017700080000240B401002000480040000C0140FD
:10178000FEE700003EB500242C48009401942A494D
:10179000029401608915C0E90214446105250561C0
:1017A0004FF440214460C161FEF7C8FD08B1FEF767
:1017B00046FD2348416841F0E06141F480214160E9
:1017C0000E20009001200190029069461B48FEF710
:1017D00037FD08B1FEF733FD00940224694617482F
:1017E0000194FEF72DFD08B1FEF729FD0B200090B6
:1017F0000320CDE9010469461048FEF721FD08B138
:10180000FEF71DFD0C2000900420019069460B4856
:10181000FEF716FD08B1FEF712FD1020CDE9000518
:101820000720029069460548FEF70AFD002801D00E
:10183000FEF705FD3EBD0000002401401000002021
:10184000000001403EB500211C48009101911A4A58
:10185000029102609215C0E90221416103244FF414
:1018600060220461C2614160FEF768FD08B1FEF7C5
:10187000E6FC0F20009001200190029069460F487D
:10188000FEF7DEFC08B1FEF7DAFC0D200225CDE9FB
:10189000000569460948FEF7D3FC08B1FEF7CFFC06
:1018A0000A208DE8310069460448FEF7C9FC00288B
:1018B00001D0FEF7C4FC3EBD0028014040000020DE
:1018C000194808B5416941F00101416140690022B0
:1018D00000F00100009011460B20FFF7FBF80B20F1
:1018E000FFF7ECF8002211460C20FFF7F3F80C206C
:1018F000FFF7E4F8002211460D20FFF7EBF80D206A
:10190000FFF7DCF8002205211020FFF7E3F8102094
:10191000FFF7D4F8002205211120FFF7DBF8BDE81E
:1019200008401120FFF7CAB8001002402DE9F0432B
:1019300085B000243948009401940294039481698D
:1019400041F010018161816901F010010491816908
:1019500041F020018161816901F0200104918169D8
:1019600041F004018161816901F004010491816900
:1019700041F0080181618069294F00F0080004905E
:10198000002230213846FFF735F8DFF89890002222
:1019900004214846FFF72EF83F200326CDE9000634
:1019A000DFF8848069464046FEF730FF0125CDE927
:1019B000005669463846FEF729FF41F20200CDE99C
:1019C0000004694638460294FEF720FF30200226C4
:1019D000CDE90005CDE9024669463846FEF716FF17
:1019E0000420CDE90005CDE9024669464846FEF7E8
:1019F0000DFF4FF4E050CDE90004694640460294E3
:101A0000FEF704FFB020CDE9000469464846029481
:101A1000FEF7FCFE05B0BDE8F083000000100240B8
:101A200000080140000C01400010014030B595B0A5
:101A300000240E940F941094119412941C21684663
:101A40001394FEF798FB1C2107A8FEF794FB32487D
:101A50003049202580E832004FF4FA61C0E90314D0
:101A600044618461FFF7D5FB08B1FEF7E8FB4FF452
:101A700080500E900EA92848FFF706FC08B1FEF72B
:101A8000DEFB2548FFF754FD08B1FEF7D8FB102018
:101A9000CDE9120412A92048FFF793FB08B1FEF725
:101AA000CEFB6020CDE900040820CDE90240800192
:101AB0000494CDE90540002269461748FFF7D0FCA1
:101AC00008B1FEF7BCFB042269461348FFF7C8FCC7
:101AD00008B1FEF7B4FB082269460F48FFF7C0FCC7
:101AE00008B1FEF7ACFB4FF40060079008A9401066
:101AF00081E831000B940C9407A907480D94FFF777
:101B000033FB08B1FEF79BFB0348FFF737FC15B02A
:101B100030BD0000002C0140B400002030B599B069
:101B2000002413941494159414210EA81694FEF70F
:101B300022FB17941C2168461894FEF71CFB1C21FD
:101B400007A8FEF718FB37483549202580E8320002
:101B50004FF4FA61C0E9031444618461FFF759FB53
:101B600008B1FEF76CFB4FF48050139013A92D4879
:101B7000FFF78AFB08B1FEF762FB2A48FFF7D8FCA3
:101B800008B1FEF75CFB0520CDE90E040EA925483F
:101B9000FFF7EAFC08B1FEF752FB8020CDE91750B1
:101BA00017A92048FFF70DFB08B1FEF748FB60209E
:101BB000CDE900040820CDE9024080010494CDE97C
:101BC0000540002269461748FFF74AFC08B1FEF7B6
:101BD00036FB042269461348FFF742FC08B1FEF7C2
:101BE0002EFB082269460F48FFF73AFC08B1FEF7C2
:101BF00026FB4FF40060079008A9401081E83100EF
:101C00000B940C9407A907480D94FFF7ADFA08B19F
:101C1000FEF715FB0348FFF7B1FB19B030BD00001C
:101C200000340140F40000200C4810B50A4901605E
:101C30004FF496414160002181600C22C160C0E9EF
:101C400004128161C161FFF7B0FC002803D0BDE838
:101C50001040FEF7F4BA10BD0044004034010020EB
:101C60000C4810B50A4901604FF4E1314160002190
:101C700081600C22C160C0E904128161C161FFF77B
:101C800094FC002803D0BDE81040FEF7D8BA10BD80
:101C90000048004074010020FEE770470907090E64
:101CA000002806DA00F00F0000F1E02080F8141D93
:101CB000704700F1E02080F80014704770477047CB
:101CC000FEF7A4BE30B595B028216846FEF753FA5A
:101CD00014210AA8FEF74FFA18210FA8FEF74BFAB5
:101CE00001204FF4A02100248DE81300049000048B
:101CF000CDE90804022507956846FFF79FF80F20F5
:101D0000CDE90A056802CDE90C4000210AA80E942D
:101D1000FEF788FF0FA80F951194FEF70DFF15B081
:101D200030BD00000D48016841F0010101604168CB
:101D30000B4A1140416001680A4A11400160016884
:101D400021F480210160416821F4FE0141604FF4DB
:101D50001F0181600449C003086070470010024001
:101D60000000FFF8FFFFF6FE08ED00E0F0B50268A6
:101D70001C4B1D4D1D4E1E4F1E4C4FF0804C98426B
:101D800009D0A04207D0604505D0A84203D0B04298
:101D900001D0B84204D122F0700E4A6842EA0E0225
:101DA000984209D0A04207D0604505D0A84203D090
:101DB000B04201D0B84203D122F44075CA682A4328
:101DC00022F080054A692A4302608A68C2620A6872
:101DD0008262984201D0A04201D1096901630121C8
:101DE0004161F0BD002C01400004004000080040AB
:101DF000000C00400034014010B5846842EA032220
:101E000024F47F440A432243826010BD826822F09A
:101E100070020A4342F0070181607047F0B5026A20
:101E200022F001020262036A42688469124E24F0C1
:101E300073050C682C4323F002058B682B430D4D72
:101E4000A84201D0B04205D123F00807CB683B433C
:101E500023F00403A84201D0B04205D14D6922F419
:101E6000407215438A692A4342608461496841632C
:101E70000362F0BD002C014000340140F0B5026A5D
:101E800022F010020262026A436884690D6824F439
:101E9000E64444EA05248D6822F0200242EA051255
:101EA0000F4D104EA84201D0B04206D1CF6822F0AB
:101EB000800242EA071222F04002A84201D0B0425A
:101EC00007D14D6923F4406343EA85038D6943EAF2
:101ED000850343608461496881630262F0BD00004C
:101EE000002C014000340140F0B5026A22F48072F7
:101EF0000262026A4368C46922F4007224F0730526
:101F00000C68124E2C438D6842EA05220E4DA84201
:101F100001D0B04206D1CF6822F4006242EA072223
:101F200022F48062A84201D0B04207D14D6923F467
:101F3000405343EA05138D6943EA05134360C461C6
:101F40004968C1630262F0BD002C014000340140C9
:101F500030B5026A22F480520262046A4268C369A0
:101F60000D6823F4E64343EA05238D6824F4005406
:101F700044EA0534084DA84202D0084DA84204D1D5
:101F80004D6922F4804242EA85124260C361496889
:101F90000164046230BD0000002C014000340140A7
:101FA00030B403689A6822F070044A68224322F031
:101FB00007040A6822439A604A6812F00F0F1FD183
:101FC0001211082A1CD2DFE802F01B1B1B1B0B1D81
:101FD00023040B69D1E90221006830BCFFF70CBF74
:101FE0000268136A146A24F0010414620268946996
:101FF000096924F0F00444EA011191610068036268
:1020000030BC70470A698968006830BC00F006B8C7
:102010000A698968006830BC00F011B810B5036A1D
:10202000046A24F001040462846924F0F00444EAA0
:10203000021423F00A020A438461026210BD10B543
:10204000036A23F0100303628369046A23F4704374
:1020500043EA023224F0A00343EA011182610162E3
:1020600010BD00002DE9F041044600680169E268F6
:1020700021F44051114301612169A068084361695D
:1020800008432168CA6841F20C639A430243CA605C
:1020900020684169A26921F44071114341614C49B2
:1020A00020686425322688423CD1FEF781FE00EB91
:1020B000C00101EB001061688900B0FBF1F7FEF789
:1020C00077FE00EBC00101EB00106168B0468900AB
:1020D000B0FBF1F0B0FBF5F06FF01801484307EBEF
:1020E000800106EB0110B0FBF5F000F0F006FEF702
:1020F0005FFE00EBC00101EB001061688900B0FBDE
:10210000F1F0B0FBF5F006EB0016FEF751FE00EB28
:10211000C00101EB001061688900B0FBF1F7FEF728
:1021200047FE3BE0FEF734FE00EBC00101EB001080
:1021300061688900B0FBF1F7FEF72AFE00EBC001F1
:1021400001EB00106168B0468900B0FBF1F0B0FB14
:10215000F5F06FF01801484307EB800106EB011022
:10216000B0FBF5F000F0F006FEF712FE00EBC00148
:1021700001EB001061688900B0FBF1F0B0FBF5F0F5
:1021800006EB0016FEF704FE00EBC00101EB0010A9
:1021900061688900B0FBF1F7FEF7FAFD00EBC001C2
:1021A00001EB001061688900B0FBF1F0B0FBF5F0C5
:1021B0006FF01801484307EB800108EB0110B0FBFA
:1021C000F5F0216800F00F0030448860BDE8F08130
:1021D00000380140FEE702E008C8121F08C1002ACB
:1021E000FAD170477047002001E001C1121F002A98
:1021F000FBD17047FEF712FCFFF764FDFFF796FB7B
:10220000FFF75EFBFFF710FDFFF72AFDFFF70EFC5F
:10221000FFF784FCFFF7B6FAFFF714FBFEE70000B8
:102220000000000000000102030406070809000086
:1022300000000102030400005822000800000020F2
:1022400010000000D62100086822000810000020BD
:10225000B8060000E62100080100000010000000A0
:082260000000000000A24A0486
:0400000508000131BD
:00000001FF
